{
  "contractName": "AdSpaceToken",
  "abi": [
    {
      "inputs": [
        {
          "internalType": "contract IERC20",
          "name": "paymentToken",
          "type": "address"
        }
      ],
      "stateMutability": "nonpayable",
      "type": "constructor"
    },
    {
      "anonymous": false,
      "inputs": [
        {
          "indexed": false,
          "internalType": "uint256",
          "name": "tokenId",
          "type": "uint256"
        },
        {
          "indexed": false,
          "internalType": "address",
          "name": "buyer",
          "type": "address"
        }
      ],
      "name": "AdSpacePurchased",
      "type": "event"
    },
    {
      "anonymous": false,
      "inputs": [
        {
          "indexed": true,
          "internalType": "address",
          "name": "owner",
          "type": "address"
        },
        {
          "indexed": true,
          "internalType": "address",
          "name": "approved",
          "type": "address"
        },
        {
          "indexed": true,
          "internalType": "uint256",
          "name": "tokenId",
          "type": "uint256"
        }
      ],
      "name": "Approval",
      "type": "event"
    },
    {
      "anonymous": false,
      "inputs": [
        {
          "indexed": true,
          "internalType": "address",
          "name": "owner",
          "type": "address"
        },
        {
          "indexed": true,
          "internalType": "address",
          "name": "operator",
          "type": "address"
        },
        {
          "indexed": false,
          "internalType": "bool",
          "name": "approved",
          "type": "bool"
        }
      ],
      "name": "ApprovalForAll",
      "type": "event"
    },
    {
      "anonymous": false,
      "inputs": [
        {
          "indexed": true,
          "internalType": "address",
          "name": "from",
          "type": "address"
        },
        {
          "indexed": true,
          "internalType": "address",
          "name": "to",
          "type": "address"
        },
        {
          "indexed": true,
          "internalType": "uint256",
          "name": "tokenId",
          "type": "uint256"
        }
      ],
      "name": "Transfer",
      "type": "event"
    },
    {
      "inputs": [
        {
          "internalType": "uint256",
          "name": "",
          "type": "uint256"
        }
      ],
      "name": "adSpaces",
      "outputs": [
        {
          "internalType": "uint256",
          "name": "tokenId",
          "type": "uint256"
        },
        {
          "internalType": "string",
          "name": "uri",
          "type": "string"
        },
        {
          "internalType": "uint256",
          "name": "price",
          "type": "uint256"
        },
        {
          "internalType": "string",
          "name": "imageUrl",
          "type": "string"
        }
      ],
      "stateMutability": "view",
      "type": "function",
      "constant": true
    },
    {
      "inputs": [
        {
          "internalType": "address",
          "name": "to",
          "type": "address"
        },
        {
          "internalType": "uint256",
          "name": "tokenId",
          "type": "uint256"
        }
      ],
      "name": "approve",
      "outputs": [],
      "stateMutability": "nonpayable",
      "type": "function"
    },
    {
      "inputs": [
        {
          "internalType": "address",
          "name": "owner",
          "type": "address"
        }
      ],
      "name": "balanceOf",
      "outputs": [
        {
          "internalType": "uint256",
          "name": "",
          "type": "uint256"
        }
      ],
      "stateMutability": "view",
      "type": "function",
      "constant": true
    },
    {
      "inputs": [
        {
          "internalType": "uint256",
          "name": "tokenId",
          "type": "uint256"
        }
      ],
      "name": "getApproved",
      "outputs": [
        {
          "internalType": "address",
          "name": "",
          "type": "address"
        }
      ],
      "stateMutability": "view",
      "type": "function",
      "constant": true
    },
    {
      "inputs": [
        {
          "internalType": "address",
          "name": "owner",
          "type": "address"
        },
        {
          "internalType": "address",
          "name": "operator",
          "type": "address"
        }
      ],
      "name": "isApprovedForAll",
      "outputs": [
        {
          "internalType": "bool",
          "name": "",
          "type": "bool"
        }
      ],
      "stateMutability": "view",
      "type": "function",
      "constant": true
    },
    {
      "inputs": [],
      "name": "name",
      "outputs": [
        {
          "internalType": "string",
          "name": "",
          "type": "string"
        }
      ],
      "stateMutability": "view",
      "type": "function",
      "constant": true
    },
    {
      "inputs": [
        {
          "internalType": "uint256",
          "name": "tokenId",
          "type": "uint256"
        }
      ],
      "name": "ownerOf",
      "outputs": [
        {
          "internalType": "address",
          "name": "",
          "type": "address"
        }
      ],
      "stateMutability": "view",
      "type": "function",
      "constant": true
    },
    {
      "inputs": [
        {
          "internalType": "address",
          "name": "from",
          "type": "address"
        },
        {
          "internalType": "address",
          "name": "to",
          "type": "address"
        },
        {
          "internalType": "uint256",
          "name": "tokenId",
          "type": "uint256"
        }
      ],
      "name": "safeTransferFrom",
      "outputs": [],
      "stateMutability": "nonpayable",
      "type": "function"
    },
    {
      "inputs": [
        {
          "internalType": "address",
          "name": "from",
          "type": "address"
        },
        {
          "internalType": "address",
          "name": "to",
          "type": "address"
        },
        {
          "internalType": "uint256",
          "name": "tokenId",
          "type": "uint256"
        },
        {
          "internalType": "bytes",
          "name": "data",
          "type": "bytes"
        }
      ],
      "name": "safeTransferFrom",
      "outputs": [],
      "stateMutability": "nonpayable",
      "type": "function"
    },
    {
      "inputs": [
        {
          "internalType": "address",
          "name": "operator",
          "type": "address"
        },
        {
          "internalType": "bool",
          "name": "approved",
          "type": "bool"
        }
      ],
      "name": "setApprovalForAll",
      "outputs": [],
      "stateMutability": "nonpayable",
      "type": "function"
    },
    {
      "inputs": [
        {
          "internalType": "bytes4",
          "name": "interfaceId",
          "type": "bytes4"
        }
      ],
      "name": "supportsInterface",
      "outputs": [
        {
          "internalType": "bool",
          "name": "",
          "type": "bool"
        }
      ],
      "stateMutability": "view",
      "type": "function",
      "constant": true
    },
    {
      "inputs": [],
      "name": "symbol",
      "outputs": [
        {
          "internalType": "string",
          "name": "",
          "type": "string"
        }
      ],
      "stateMutability": "view",
      "type": "function",
      "constant": true
    },
    {
      "inputs": [
        {
          "internalType": "uint256",
          "name": "index",
          "type": "uint256"
        }
      ],
      "name": "tokenByIndex",
      "outputs": [
        {
          "internalType": "uint256",
          "name": "",
          "type": "uint256"
        }
      ],
      "stateMutability": "view",
      "type": "function",
      "constant": true
    },
    {
      "inputs": [
        {
          "internalType": "address",
          "name": "owner",
          "type": "address"
        },
        {
          "internalType": "uint256",
          "name": "index",
          "type": "uint256"
        }
      ],
      "name": "tokenOfOwnerByIndex",
      "outputs": [
        {
          "internalType": "uint256",
          "name": "",
          "type": "uint256"
        }
      ],
      "stateMutability": "view",
      "type": "function",
      "constant": true
    },
    {
      "inputs": [
        {
          "internalType": "uint256",
          "name": "tokenId",
          "type": "uint256"
        }
      ],
      "name": "tokenURI",
      "outputs": [
        {
          "internalType": "string",
          "name": "",
          "type": "string"
        }
      ],
      "stateMutability": "view",
      "type": "function",
      "constant": true
    },
    {
      "inputs": [],
      "name": "totalSupply",
      "outputs": [
        {
          "internalType": "uint256",
          "name": "",
          "type": "uint256"
        }
      ],
      "stateMutability": "view",
      "type": "function",
      "constant": true
    },
    {
      "inputs": [
        {
          "internalType": "address",
          "name": "from",
          "type": "address"
        },
        {
          "internalType": "address",
          "name": "to",
          "type": "address"
        },
        {
          "internalType": "uint256",
          "name": "tokenId",
          "type": "uint256"
        }
      ],
      "name": "transferFrom",
      "outputs": [],
      "stateMutability": "nonpayable",
      "type": "function"
    },
    {
      "inputs": [
        {
          "internalType": "string",
          "name": "uri",
          "type": "string"
        },
        {
          "internalType": "uint256",
          "name": "price",
          "type": "uint256"
        },
        {
          "internalType": "string",
          "name": "imageUrl",
          "type": "string"
        }
      ],
      "name": "createAdSpace",
      "outputs": [],
      "stateMutability": "nonpayable",
      "type": "function"
    },
    {
      "inputs": [
        {
          "internalType": "uint256",
          "name": "tokenId",
          "type": "uint256"
        }
      ],
      "name": "buyAdSpace",
      "outputs": [],
      "stateMutability": "nonpayable",
      "type": "function"
    },
    {
      "inputs": [
        {
          "internalType": "uint256",
          "name": "tokenId",
          "type": "uint256"
        },
        {
          "internalType": "string",
          "name": "newUri",
          "type": "string"
        },
        {
          "internalType": "uint256",
          "name": "newPrice",
          "type": "uint256"
        },
        {
          "internalType": "string",
          "name": "newImageUrl",
          "type": "string"
        }
      ],
      "name": "updateAdSpace",
      "outputs": [],
      "stateMutability": "nonpayable",
      "type": "function"
    },
    {
      "inputs": [],
      "name": "totalAdSpaces",
      "outputs": [
        {
          "internalType": "uint256",
          "name": "",
          "type": "uint256"
        }
      ],
      "stateMutability": "view",
      "type": "function",
      "constant": true
    },
    {
      "inputs": [
        {
          "internalType": "address",
          "name": "owner",
          "type": "address"
        }
      ],
      "name": "adSpacesOf",
      "outputs": [
        {
          "internalType": "uint256[]",
          "name": "",
          "type": "uint256[]"
        }
      ],
      "stateMutability": "view",
      "type": "function",
      "constant": true
    }
  ],
  "bytecode": "0x60806040523480156200001157600080fd5b50604051620023db380380620023db833981016040819052620000349162000169565b604080518082018252600c81526b20b229b830b1b2aa37b5b2b760a11b6020808301918252835180850190945260038452621054d560ea1b9084015281519192916200008391600091620000c3565b50805162000099906001906020840190620000c3565b5050600b80546001600160a01b0319166001600160a01b03939093169290921790915550620001d8565b828054620000d1906200019b565b90600052602060002090601f016020900481019282620000f5576000855562000140565b82601f106200011057805160ff191683800117855562000140565b8280016001018555821562000140579182015b828111156200014057825182559160200191906001019062000123565b506200014e92915062000152565b5090565b5b808211156200014e576000815560010162000153565b6000602082840312156200017c57600080fd5b81516001600160a01b03811681146200019457600080fd5b9392505050565b600181811c90821680620001b057607f821691505b60208210811415620001d257634e487b7160e01b600052602260045260246000fd5b50919050565b6121f380620001e86000396000f3fe608060405234801561001057600080fd5b50600436106101425760003560e01c80636352211e116100b8578063b88d4fde1161007c578063b88d4fde1461029e578063c87b56dd146102b1578063dd501d28146102c4578063e5891474146102d7578063e7c67fe7146102ea578063e985e9c51461030d57600080fd5b80636352211e14610255578063651168df1461026857806370a082311461027057806395d89b4114610283578063a22cb4651461028b57600080fd5b806323b872dd1161010a57806323b872dd146101d65780632f745c59146101e957806331d024f4146101fc57806342842e0e1461020f5780634ca846c4146102225780634f6ccce71461024257600080fd5b806301ffc9a71461014757806306fdde031461016f578063081812fc14610184578063095ea7b3146101af57806318160ddd146101c4575b600080fd5b61015a610155366004611af0565b610349565b60405190151581526020015b60405180910390f35b610177610374565b6040516101669190611b65565b610197610192366004611b78565b610406565b6040516001600160a01b039091168152602001610166565b6101c26101bd366004611bad565b61042d565b005b6008545b604051908152602001610166565b6101c26101e4366004611bd7565b610548565b6101c86101f7366004611bad565b610579565b6101c261020a366004611cbf565b61060f565b6101c261021d366004611bd7565b6106a9565b610235610230366004611d2c565b6106c4565b6040516101669190611d47565b6101c8610250366004611b78565b610766565b610197610263366004611b78565b6107f9565b6101c8610859565b6101c861027e366004611d2c565b610869565b6101776108ef565b6101c2610299366004611d99565b6108fe565b6101c26102ac366004611dd0565b61090d565b6101776102bf366004611b78565b61093f565b6101c26102d2366004611b78565b6109b3565b6101c26102e5366004611e4c565b610d22565b6102fd6102f8366004611b78565b610e1f565b6040516101669493929190611eb7565b61015a61031b366004611ef3565b6001600160a01b03918216600090815260056020908152604080832093909416825291909152205460ff1690565b60006001600160e01b0319821663780e9d6360e01b148061036e575061036e82610f58565b92915050565b60606000805461038390611f26565b80601f01602080910402602001604051908101604052809291908181526020018280546103af90611f26565b80156103fc5780601f106103d1576101008083540402835291602001916103fc565b820191906000526020600020905b8154815290600101906020018083116103df57829003601f168201915b5050505050905090565b600061041182610fa8565b506000908152600460205260409020546001600160a01b031690565b6000610438826107f9565b9050806001600160a01b0316836001600160a01b031614156104ab5760405162461bcd60e51b815260206004820152602160248201527f4552433732313a20617070726f76616c20746f2063757272656e74206f776e656044820152603960f91b60648201526084015b60405180910390fd5b336001600160a01b03821614806104c757506104c7813361031b565b6105395760405162461bcd60e51b815260206004820152603d60248201527f4552433732313a20617070726f76652063616c6c6572206973206e6f7420746f60448201527f6b656e206f776e6572206f7220617070726f76656420666f7220616c6c00000060648201526084016104a2565b610543838361100a565b505050565b6105523382611078565b61056e5760405162461bcd60e51b81526004016104a290611f61565b6105438383836110f7565b600061058483610869565b82106105e65760405162461bcd60e51b815260206004820152602b60248201527f455243373231456e756d657261626c653a206f776e657220696e646578206f7560448201526a74206f6620626f756e647360a81b60648201526084016104a2565b506001600160a01b03919091166000908152600660209081526040808320938352929052205490565b600061061a600a5490565b90506106263382611268565b604080516080810182528281526020808201878152828401879052606083018690526000858152600c83529390932082518155925180519293926106709260018501920190611a41565b506040820151600282015560608201518051610696916003840191602090910190611a41565b5050600a80546001019055505b50505050565b6105438383836040518060200160405280600081525061090d565b606060006106d183610869565b905060008167ffffffffffffffff8111156106ee576106ee611c13565b604051908082528060200260200182016040528015610717578160200160208202803683370190505b50905060005b8281101561075e5761072f8582610579565b82828151811061074157610741611fae565b60209081029190910101528061075681611fda565b91505061071d565b509392505050565b600061077160085490565b82106107d45760405162461bcd60e51b815260206004820152602c60248201527f455243373231456e756d657261626c653a20676c6f62616c20696e646578206f60448201526b7574206f6620626f756e647360a01b60648201526084016104a2565b600882815481106107e7576107e7611fae565b90600052602060002001549050919050565b6000818152600260205260408120546001600160a01b03168061036e5760405162461bcd60e51b8152602060048201526018602482015277115490cdcc8c4e881a5b9d985b1a59081d1bdad95b88125160421b60448201526064016104a2565b6000610864600a5490565b905090565b60006001600160a01b0382166108d35760405162461bcd60e51b815260206004820152602960248201527f4552433732313a2061646472657373207a65726f206973206e6f7420612076616044820152683634b21037bbb732b960b91b60648201526084016104a2565b506001600160a01b031660009081526003602052604090205490565b60606001805461038390611f26565b610909338383611401565b5050565b6109173383611078565b6109335760405162461bcd60e51b81526004016104a290611f61565b6106a3848484846114d0565b606061094a82610fa8565b600061096160408051602081019091526000815290565b9050600081511161098157604051806020016040528060008152506109ac565b8061098b84611503565b60405160200161099c929190611ff5565b6040516020818303038152906040525b9392505050565b6000818152600260205260409020546001600160a01b03166109e75760405162461bcd60e51b81526004016104a290612024565b6000600c600083815260200190815260200160002060405180608001604052908160008201548152602001600182018054610a2190611f26565b80601f0160208091040260200160405190810160405280929190818152602001828054610a4d90611f26565b8015610a9a5780601f10610a6f57610100808354040283529160200191610a9a565b820191906000526020600020905b815481529060010190602001808311610a7d57829003601f168201915b5050505050815260200160028201548152602001600382018054610abd90611f26565b80601f0160208091040260200160405190810160405280929190818152602001828054610ae990611f26565b8015610b365780601f10610b0b57610100808354040283529160200191610b36565b820191906000526020600020905b815481529060010190602001808311610b1957829003601f168201915b50505091909252505050604081810151600b5491516370a0823160e01b8152336004820152929350916001600160a01b03909116906370a082319060240160206040518083038186803b158015610b8c57600080fd5b505afa158015610ba0573d6000803e3d6000fd5b505050506040513d601f19601f82011682018060405250810190610bc49190612069565b1015610c2b5760405162461bcd60e51b815260206004820152603060248201527f41645370616365546f6b656e3a20496e73756666696369656e74207061796d6560448201526f6e7420746f6b656e2062616c616e636560801b60648201526084016104a2565b600b546001600160a01b03166323b872dd33610c46856107f9565b60408086015190516001600160e01b031960e086901b1681526001600160a01b0393841660048201529290911660248301526044820152606401602060405180830381600087803b158015610c9a57600080fd5b505af1158015610cae573d6000803e3d6000fd5b505050506040513d601f19601f82011682018060405250810190610cd29190612082565b50610ce6610cdf836107f9565b33846110f7565b604080518381523360208201527ff161e797a8d0e434e3470a60a9343ec359299a536ed6e51414733f40f8f1d5cf910160405180910390a15050565b8333610d2d826107f9565b6001600160a01b031614610d915760405162461bcd60e51b815260206004820152602560248201527f41645370616365546f6b656e3a2043616c6c6572206973206e6f74207468652060448201526437bbb732b960d91b60648201526084016104a2565b6000858152600260205260409020546001600160a01b0316610dc55760405162461bcd60e51b81526004016104a290612024565b6000858152600c602090815260409091208551610dea92600190920191870190611a41565b506000858152600c60209081526040909120600281018590558351610e1792600390920191850190611a41565b505050505050565b600c6020526000908152604090208054600182018054919291610e4190611f26565b80601f0160208091040260200160405190810160405280929190818152602001828054610e6d90611f26565b8015610eba5780601f10610e8f57610100808354040283529160200191610eba565b820191906000526020600020905b815481529060010190602001808311610e9d57829003601f168201915b505050505090806002015490806003018054610ed590611f26565b80601f0160208091040260200160405190810160405280929190818152602001828054610f0190611f26565b8015610f4e5780601f10610f2357610100808354040283529160200191610f4e565b820191906000526020600020905b815481529060010190602001808311610f3157829003601f168201915b5050505050905084565b60006001600160e01b031982166380ac58cd60e01b1480610f8957506001600160e01b03198216635b5e139f60e01b145b8061036e57506301ffc9a760e01b6001600160e01b031983161461036e565b6000818152600260205260409020546001600160a01b03166110075760405162461bcd60e51b8152602060048201526018602482015277115490cdcc8c4e881a5b9d985b1a59081d1bdad95b88125160421b60448201526064016104a2565b50565b600081815260046020526040902080546001600160a01b0319166001600160a01b038416908117909155819061103f826107f9565b6001600160a01b03167f8c5be1e5ebec7d5bd14f71427d1e84f3dd0314c0f7b2291e5b200ac8c7c3b92560405160405180910390a45050565b600080611084836107f9565b9050806001600160a01b0316846001600160a01b031614806110cb57506001600160a01b0380821660009081526005602090815260408083209388168352929052205460ff165b806110ef5750836001600160a01b03166110e484610406565b6001600160a01b0316145b949350505050565b826001600160a01b031661110a826107f9565b6001600160a01b0316146111305760405162461bcd60e51b81526004016104a29061209f565b6001600160a01b0382166111925760405162461bcd60e51b8152602060048201526024808201527f4552433732313a207472616e7366657220746f20746865207a65726f206164646044820152637265737360e01b60648201526084016104a2565b61119f8383836001611598565b826001600160a01b03166111b2826107f9565b6001600160a01b0316146111d85760405162461bcd60e51b81526004016104a29061209f565b600081815260046020908152604080832080546001600160a01b03199081169091556001600160a01b0387811680865260038552838620805460001901905590871680865283862080546001019055868652600290945282852080549092168417909155905184937fddf252ad1be2c89b69c2b068fc378daa952ba7f163c4a11628f55a4df523b3ef91a4505050565b6001600160a01b0382166112be5760405162461bcd60e51b815260206004820181905260248201527f4552433732313a206d696e7420746f20746865207a65726f206164647265737360448201526064016104a2565b6000818152600260205260409020546001600160a01b0316156113235760405162461bcd60e51b815260206004820152601c60248201527f4552433732313a20746f6b656e20616c7265616479206d696e7465640000000060448201526064016104a2565b611331600083836001611598565b6000818152600260205260409020546001600160a01b0316156113965760405162461bcd60e51b815260206004820152601c60248201527f4552433732313a20746f6b656e20616c7265616479206d696e7465640000000060448201526064016104a2565b6001600160a01b038216600081815260036020908152604080832080546001019055848352600290915280822080546001600160a01b0319168417905551839291907fddf252ad1be2c89b69c2b068fc378daa952ba7f163c4a11628f55a4df523b3ef908290a45050565b816001600160a01b0316836001600160a01b031614156114635760405162461bcd60e51b815260206004820152601960248201527f4552433732313a20617070726f766520746f2063616c6c65720000000000000060448201526064016104a2565b6001600160a01b03838116600081815260056020908152604080832094871680845294825291829020805460ff191686151590811790915591519182527f17307eab39ab6107e8899845ad3d59bd9653f200f220920489ca2b5937696c31910160405180910390a3505050565b6114db8484846110f7565b6114e7848484846116cc565b6106a35760405162461bcd60e51b81526004016104a2906120e4565b60606000611510836117d9565b600101905060008167ffffffffffffffff81111561153057611530611c13565b6040519080825280601f01601f19166020018201604052801561155a576020820181803683370190505b5090508181016020015b600019016f181899199a1a9b1b9c1cb0b131b232b360811b600a86061a8153600a85049450846115935761075e565b611564565b60018111156116075760405162461bcd60e51b815260206004820152603560248201527f455243373231456e756d657261626c653a20636f6e7365637574697665207472604482015274185b9cd9995c9cc81b9bdd081cdd5c1c1bdc9d1959605a1b60648201526084016104a2565b816001600160a01b0385166116635761165e81600880546000838152600960205260408120829055600182018355919091527ff3f7a9fe364faab93b216da50a3214154f22a0a2b415b23a84c8169e8b636ee30155565b611686565b836001600160a01b0316856001600160a01b0316146116865761168685826118b1565b6001600160a01b0384166116a25761169d8161194e565b6116c5565b846001600160a01b0316846001600160a01b0316146116c5576116c584826119fd565b5050505050565b60006001600160a01b0384163b156117ce57604051630a85bd0160e11b81526001600160a01b0385169063150b7a0290611710903390899088908890600401612136565b602060405180830381600087803b15801561172a57600080fd5b505af192505050801561175a575060408051601f3d908101601f1916820190925261175791810190612173565b60015b6117b4573d808015611788576040519150601f19603f3d011682016040523d82523d6000602084013e61178d565b606091505b5080516117ac5760405162461bcd60e51b81526004016104a2906120e4565b805181602001fd5b6001600160e01b031916630a85bd0160e11b1490506110ef565b506001949350505050565b60008072184f03e93ff9f4daa797ed6e38ed64bf6a1f0160401b83106118185772184f03e93ff9f4daa797ed6e38ed64bf6a1f0160401b830492506040015b6d04ee2d6d415b85acef81000000008310611844576d04ee2d6d415b85acef8100000000830492506020015b662386f26fc10000831061186257662386f26fc10000830492506010015b6305f5e100831061187a576305f5e100830492506008015b612710831061188e57612710830492506004015b606483106118a0576064830492506002015b600a831061036e5760010192915050565b600060016118be84610869565b6118c89190612190565b60008381526007602052604090205490915080821461191b576001600160a01b03841660009081526006602090815260408083208584528252808320548484528184208190558352600790915290208190555b5060009182526007602090815260408084208490556001600160a01b039094168352600681528383209183525290812055565b60085460009061196090600190612190565b6000838152600960205260408120546008805493945090928490811061198857611988611fae565b9060005260206000200154905080600883815481106119a9576119a9611fae565b60009182526020808320909101929092558281526009909152604080822084905585825281205560088054806119e1576119e16121a7565b6001900381819060005260206000200160009055905550505050565b6000611a0883610869565b6001600160a01b039093166000908152600660209081526040808320868452825280832085905593825260079052919091209190915550565b828054611a4d90611f26565b90600052602060002090601f016020900481019282611a6f5760008555611ab5565b82601f10611a8857805160ff1916838001178555611ab5565b82800160010185558215611ab5579182015b82811115611ab5578251825591602001919060010190611a9a565b50611ac1929150611ac5565b5090565b5b80821115611ac15760008155600101611ac6565b6001600160e01b03198116811461100757600080fd5b600060208284031215611b0257600080fd5b81356109ac81611ada565b60005b83811015611b28578181015183820152602001611b10565b838111156106a35750506000910152565b60008151808452611b51816020860160208601611b0d565b601f01601f19169290920160200192915050565b6020815260006109ac6020830184611b39565b600060208284031215611b8a57600080fd5b5035919050565b80356001600160a01b0381168114611ba857600080fd5b919050565b60008060408385031215611bc057600080fd5b611bc983611b91565b946020939093013593505050565b600080600060608486031215611bec57600080fd5b611bf584611b91565b9250611c0360208501611b91565b9150604084013590509250925092565b634e487b7160e01b600052604160045260246000fd5b600067ffffffffffffffff80841115611c4457611c44611c13565b604051601f8501601f19908116603f01168101908282118183101715611c6c57611c6c611c13565b81604052809350858152868686011115611c8557600080fd5b858560208301376000602087830101525050509392505050565b600082601f830112611cb057600080fd5b6109ac83833560208501611c29565b600080600060608486031215611cd457600080fd5b833567ffffffffffffffff80821115611cec57600080fd5b611cf887838801611c9f565b9450602086013593506040860135915080821115611d1557600080fd5b50611d2286828701611c9f565b9150509250925092565b600060208284031215611d3e57600080fd5b6109ac82611b91565b6020808252825182820181905260009190848201906040850190845b81811015611d7f57835183529284019291840191600101611d63565b50909695505050505050565b801515811461100757600080fd5b60008060408385031215611dac57600080fd5b611db583611b91565b91506020830135611dc581611d8b565b809150509250929050565b60008060008060808587031215611de657600080fd5b611def85611b91565b9350611dfd60208601611b91565b925060408501359150606085013567ffffffffffffffff811115611e2057600080fd5b8501601f81018713611e3157600080fd5b611e4087823560208401611c29565b91505092959194509250565b60008060008060808587031215611e6257600080fd5b84359350602085013567ffffffffffffffff80821115611e8157600080fd5b611e8d88838901611c9f565b9450604087013593506060870135915080821115611eaa57600080fd5b50611e4087828801611c9f565b848152608060208201526000611ed06080830186611b39565b8460408401528281036060840152611ee88185611b39565b979650505050505050565b60008060408385031215611f0657600080fd5b611f0f83611b91565b9150611f1d60208401611b91565b90509250929050565b600181811c90821680611f3a57607f821691505b60208210811415611f5b57634e487b7160e01b600052602260045260246000fd5b50919050565b6020808252602d908201527f4552433732313a2063616c6c6572206973206e6f7420746f6b656e206f776e6560408201526c1c881bdc88185c1c1c9bdd9959609a1b606082015260800190565b634e487b7160e01b600052603260045260246000fd5b634e487b7160e01b600052601160045260246000fd5b6000600019821415611fee57611fee611fc4565b5060010190565b60008351612007818460208801611b0d565b83519083019061201b818360208801611b0d565b01949350505050565b60208082526025908201527f41645370616365546f6b656e3a20416420737061636520646f6573206e6f7420604082015264195e1a5cdd60da1b606082015260800190565b60006020828403121561207b57600080fd5b5051919050565b60006020828403121561209457600080fd5b81516109ac81611d8b565b60208082526025908201527f4552433732313a207472616e736665722066726f6d20696e636f72726563742060408201526437bbb732b960d91b606082015260800190565b60208082526032908201527f4552433732313a207472616e7366657220746f206e6f6e20455243373231526560408201527131b2b4bb32b91034b6b83632b6b2b73a32b960711b606082015260800190565b6001600160a01b038581168252841660208201526040810183905260806060820181905260009061216990830184611b39565b9695505050505050565b60006020828403121561218557600080fd5b81516109ac81611ada565b6000828210156121a2576121a2611fc4565b500390565b634e487b7160e01b600052603160045260246000fdfea26469706673582212205b788b0cd8c6c1de28f03b76f075b3fea829e7ef962c56829007a8f1071b2bcc64736f6c63430008090033",
  "immutableReferences": {},
  "source": "pragma solidity ^0.8.0;\r\n\r\nimport \"@openzeppelin/contracts/token/ERC721/ERC721.sol\";\r\nimport \"@openzeppelin/contracts/token/ERC20/IERC20.sol\";\r\nimport \"@openzeppelin/contracts/utils/Counters.sol\";\r\nimport \"@openzeppelin/contracts/token/ERC721/extensions/ERC721Enumerable.sol\";\r\n\r\ncontract AdSpaceToken is ERC721Enumerable {\r\n    using Counters for Counters.Counter;\r\n    Counters.Counter private _tokenIdCounter;\r\n\r\n    IERC20 private _paymentToken;\r\n\r\n    struct AdSpace {\r\n        uint256 tokenId;\r\n        string uri;\r\n        uint256 price;\r\n        string imageUrl;\r\n    }\r\n\r\n    mapping(uint256 => AdSpace) public adSpaces;\r\n\r\n    event AdSpacePurchased(uint256 tokenId, address buyer);\r\n\r\n    constructor(IERC20 paymentToken) ERC721(\"AdSpaceToken\", \"AST\") {\r\n        _paymentToken = paymentToken;\r\n    }\r\n\r\n    modifier onlyOwner(uint256 tokenId) {\r\n        require(ownerOf(tokenId) == msg.sender, \"AdSpaceToken: Caller is not the owner\");\r\n        _;\r\n    }\r\n\r\n    function createAdSpace(string memory uri, uint256 price, string memory imageUrl) public {\r\n        uint256 tokenId = _tokenIdCounter.current();\r\n        _mint(msg.sender, tokenId);\r\n        adSpaces[tokenId] = AdSpace(tokenId, uri, price, imageUrl);\r\n        _tokenIdCounter.increment();\r\n    }\r\n\r\n    function buyAdSpace(uint256 tokenId) public {\r\n        require(_exists(tokenId), \"AdSpaceToken: Ad space does not exist\");\r\n        AdSpace memory adSpace = adSpaces[tokenId];\r\n        require(_paymentToken.balanceOf(msg.sender) >= adSpace.price, \"AdSpaceToken: Insufficient payment token balance\");\r\n\r\n        _paymentToken.transferFrom(msg.sender, ownerOf(tokenId), adSpace.price);\r\n        _transfer(ownerOf(tokenId), msg.sender, tokenId);\r\n        emit AdSpacePurchased(tokenId, msg.sender);\r\n    }\r\n\r\n    function updateAdSpace(uint256 tokenId, string memory newUri, uint256 newPrice, string memory newImageUrl) public onlyOwner(tokenId) {\r\n        require(_exists(tokenId), \"AdSpaceToken: Ad space does not exist\");\r\n\r\n        adSpaces[tokenId].uri = newUri;\r\n        adSpaces[tokenId].price = newPrice;\r\n        adSpaces[tokenId].imageUrl = newImageUrl;\r\n    }\r\n\r\n    function totalAdSpaces() public view returns (uint256) {\r\n        return _tokenIdCounter.current();\r\n    }\r\n\r\n    function adSpacesOf(address owner) public view returns (uint256[] memory) {\r\n        uint256 tokenCount = balanceOf(owner);\r\n\r\n        uint256[] memory ownedTokenIds = new uint256[](tokenCount);\r\n        for (uint256 i = 0; i < tokenCount; i++) {\r\n            ownedTokenIds[i] = tokenOfOwnerByIndex(owner, i);\r\n        }\r\n\r\n        return ownedTokenIds;\r\n    }\r\n}\r\n",
  "sourcePath": "C:\\Users\\Faizuddin\\Desktop\\blockchainProject\\contracts\\AdSpaceToken.sol",
  "compiler": {
    "name": "solc",
    "version": "0.8.9+commit.e5eed63a.Emscripten.clang"
  },
  "schemaVersion": "3.4.13",
  "updatedAt": "2023-04-14T13:01:02.782Z",
  "networkType": "ethereum",
  "devdoc": {
    "kind": "dev",
    "methods": {
      "approve(address,uint256)": {
        "details": "See {IERC721-approve}."
      },
      "balanceOf(address)": {
        "details": "See {IERC721-balanceOf}."
      },
      "getApproved(uint256)": {
        "details": "See {IERC721-getApproved}."
      },
      "isApprovedForAll(address,address)": {
        "details": "See {IERC721-isApprovedForAll}."
      },
      "name()": {
        "details": "See {IERC721Metadata-name}."
      },
      "ownerOf(uint256)": {
        "details": "See {IERC721-ownerOf}."
      },
      "safeTransferFrom(address,address,uint256)": {
        "details": "See {IERC721-safeTransferFrom}."
      },
      "safeTransferFrom(address,address,uint256,bytes)": {
        "details": "See {IERC721-safeTransferFrom}."
      },
      "setApprovalForAll(address,bool)": {
        "details": "See {IERC721-setApprovalForAll}."
      },
      "supportsInterface(bytes4)": {
        "details": "See {IERC165-supportsInterface}."
      },
      "symbol()": {
        "details": "See {IERC721Metadata-symbol}."
      },
      "tokenByIndex(uint256)": {
        "details": "See {IERC721Enumerable-tokenByIndex}."
      },
      "tokenOfOwnerByIndex(address,uint256)": {
        "details": "See {IERC721Enumerable-tokenOfOwnerByIndex}."
      },
      "tokenURI(uint256)": {
        "details": "See {IERC721Metadata-tokenURI}."
      },
      "totalSupply()": {
        "details": "See {IERC721Enumerable-totalSupply}."
      },
      "transferFrom(address,address,uint256)": {
        "details": "See {IERC721-transferFrom}."
      }
    },
    "version": 1
  },
  "userdoc": {
    "kind": "user",
    "methods": {},
    "version": 1
  }
}