{
  "contractName": "AdSpaceToken",
  "abi": [
    {
      "inputs": [
        {
          "internalType": "contract IERC20",
          "name": "paymentToken",
          "type": "address"
        }
      ],
      "stateMutability": "nonpayable",
      "type": "constructor"
    },
    {
      "anonymous": false,
      "inputs": [
        {
          "indexed": false,
          "internalType": "uint256",
          "name": "tokenId",
          "type": "uint256"
        },
        {
          "indexed": false,
          "internalType": "address",
          "name": "buyer",
          "type": "address"
        }
      ],
      "name": "AdSpacePurchased",
      "type": "event"
    },
    {
      "anonymous": false,
      "inputs": [
        {
          "indexed": true,
          "internalType": "address",
          "name": "owner",
          "type": "address"
        },
        {
          "indexed": true,
          "internalType": "address",
          "name": "approved",
          "type": "address"
        },
        {
          "indexed": true,
          "internalType": "uint256",
          "name": "tokenId",
          "type": "uint256"
        }
      ],
      "name": "Approval",
      "type": "event"
    },
    {
      "anonymous": false,
      "inputs": [
        {
          "indexed": true,
          "internalType": "address",
          "name": "owner",
          "type": "address"
        },
        {
          "indexed": true,
          "internalType": "address",
          "name": "operator",
          "type": "address"
        },
        {
          "indexed": false,
          "internalType": "bool",
          "name": "approved",
          "type": "bool"
        }
      ],
      "name": "ApprovalForAll",
      "type": "event"
    },
    {
      "anonymous": false,
      "inputs": [
        {
          "indexed": true,
          "internalType": "address",
          "name": "from",
          "type": "address"
        },
        {
          "indexed": true,
          "internalType": "address",
          "name": "to",
          "type": "address"
        },
        {
          "indexed": true,
          "internalType": "uint256",
          "name": "tokenId",
          "type": "uint256"
        }
      ],
      "name": "Transfer",
      "type": "event"
    },
    {
      "inputs": [
        {
          "internalType": "uint256",
          "name": "",
          "type": "uint256"
        }
      ],
      "name": "adSpacePurchasedStatus",
      "outputs": [
        {
          "internalType": "bool",
          "name": "",
          "type": "bool"
        }
      ],
      "stateMutability": "view",
      "type": "function",
      "constant": true
    },
    {
      "inputs": [
        {
          "internalType": "uint256",
          "name": "",
          "type": "uint256"
        }
      ],
      "name": "adSpaces",
      "outputs": [
        {
          "internalType": "uint256",
          "name": "tokenId",
          "type": "uint256"
        },
        {
          "internalType": "string",
          "name": "uri",
          "type": "string"
        },
        {
          "internalType": "uint256",
          "name": "price",
          "type": "uint256"
        },
        {
          "internalType": "string",
          "name": "imageUrl",
          "type": "string"
        }
      ],
      "stateMutability": "view",
      "type": "function",
      "constant": true
    },
    {
      "inputs": [
        {
          "internalType": "address",
          "name": "",
          "type": "address"
        }
      ],
      "name": "adSpacesCreatedByUser",
      "outputs": [
        {
          "internalType": "uint256",
          "name": "",
          "type": "uint256"
        }
      ],
      "stateMutability": "view",
      "type": "function",
      "constant": true
    },
    {
      "inputs": [
        {
          "internalType": "address",
          "name": "to",
          "type": "address"
        },
        {
          "internalType": "uint256",
          "name": "tokenId",
          "type": "uint256"
        }
      ],
      "name": "approve",
      "outputs": [],
      "stateMutability": "nonpayable",
      "type": "function"
    },
    {
      "inputs": [
        {
          "internalType": "address",
          "name": "owner",
          "type": "address"
        }
      ],
      "name": "balanceOf",
      "outputs": [
        {
          "internalType": "uint256",
          "name": "",
          "type": "uint256"
        }
      ],
      "stateMutability": "view",
      "type": "function",
      "constant": true
    },
    {
      "inputs": [
        {
          "internalType": "uint256",
          "name": "tokenId",
          "type": "uint256"
        }
      ],
      "name": "getApproved",
      "outputs": [
        {
          "internalType": "address",
          "name": "",
          "type": "address"
        }
      ],
      "stateMutability": "view",
      "type": "function",
      "constant": true
    },
    {
      "inputs": [
        {
          "internalType": "address",
          "name": "owner",
          "type": "address"
        },
        {
          "internalType": "address",
          "name": "operator",
          "type": "address"
        }
      ],
      "name": "isApprovedForAll",
      "outputs": [
        {
          "internalType": "bool",
          "name": "",
          "type": "bool"
        }
      ],
      "stateMutability": "view",
      "type": "function",
      "constant": true
    },
    {
      "inputs": [],
      "name": "name",
      "outputs": [
        {
          "internalType": "string",
          "name": "",
          "type": "string"
        }
      ],
      "stateMutability": "view",
      "type": "function",
      "constant": true
    },
    {
      "inputs": [
        {
          "internalType": "uint256",
          "name": "tokenId",
          "type": "uint256"
        }
      ],
      "name": "ownerOf",
      "outputs": [
        {
          "internalType": "address",
          "name": "",
          "type": "address"
        }
      ],
      "stateMutability": "view",
      "type": "function",
      "constant": true
    },
    {
      "inputs": [
        {
          "internalType": "address",
          "name": "from",
          "type": "address"
        },
        {
          "internalType": "address",
          "name": "to",
          "type": "address"
        },
        {
          "internalType": "uint256",
          "name": "tokenId",
          "type": "uint256"
        }
      ],
      "name": "safeTransferFrom",
      "outputs": [],
      "stateMutability": "nonpayable",
      "type": "function"
    },
    {
      "inputs": [
        {
          "internalType": "address",
          "name": "from",
          "type": "address"
        },
        {
          "internalType": "address",
          "name": "to",
          "type": "address"
        },
        {
          "internalType": "uint256",
          "name": "tokenId",
          "type": "uint256"
        },
        {
          "internalType": "bytes",
          "name": "data",
          "type": "bytes"
        }
      ],
      "name": "safeTransferFrom",
      "outputs": [],
      "stateMutability": "nonpayable",
      "type": "function"
    },
    {
      "inputs": [
        {
          "internalType": "address",
          "name": "operator",
          "type": "address"
        },
        {
          "internalType": "bool",
          "name": "approved",
          "type": "bool"
        }
      ],
      "name": "setApprovalForAll",
      "outputs": [],
      "stateMutability": "nonpayable",
      "type": "function"
    },
    {
      "inputs": [
        {
          "internalType": "bytes4",
          "name": "interfaceId",
          "type": "bytes4"
        }
      ],
      "name": "supportsInterface",
      "outputs": [
        {
          "internalType": "bool",
          "name": "",
          "type": "bool"
        }
      ],
      "stateMutability": "view",
      "type": "function",
      "constant": true
    },
    {
      "inputs": [],
      "name": "symbol",
      "outputs": [
        {
          "internalType": "string",
          "name": "",
          "type": "string"
        }
      ],
      "stateMutability": "view",
      "type": "function",
      "constant": true
    },
    {
      "inputs": [
        {
          "internalType": "uint256",
          "name": "index",
          "type": "uint256"
        }
      ],
      "name": "tokenByIndex",
      "outputs": [
        {
          "internalType": "uint256",
          "name": "",
          "type": "uint256"
        }
      ],
      "stateMutability": "view",
      "type": "function",
      "constant": true
    },
    {
      "inputs": [
        {
          "internalType": "address",
          "name": "owner",
          "type": "address"
        },
        {
          "internalType": "uint256",
          "name": "index",
          "type": "uint256"
        }
      ],
      "name": "tokenOfOwnerByIndex",
      "outputs": [
        {
          "internalType": "uint256",
          "name": "",
          "type": "uint256"
        }
      ],
      "stateMutability": "view",
      "type": "function",
      "constant": true
    },
    {
      "inputs": [
        {
          "internalType": "uint256",
          "name": "tokenId",
          "type": "uint256"
        }
      ],
      "name": "tokenURI",
      "outputs": [
        {
          "internalType": "string",
          "name": "",
          "type": "string"
        }
      ],
      "stateMutability": "view",
      "type": "function",
      "constant": true
    },
    {
      "inputs": [],
      "name": "totalSupply",
      "outputs": [
        {
          "internalType": "uint256",
          "name": "",
          "type": "uint256"
        }
      ],
      "stateMutability": "view",
      "type": "function",
      "constant": true
    },
    {
      "inputs": [
        {
          "internalType": "address",
          "name": "from",
          "type": "address"
        },
        {
          "internalType": "address",
          "name": "to",
          "type": "address"
        },
        {
          "internalType": "uint256",
          "name": "tokenId",
          "type": "uint256"
        }
      ],
      "name": "transferFrom",
      "outputs": [],
      "stateMutability": "nonpayable",
      "type": "function"
    },
    {
      "inputs": [
        {
          "internalType": "string",
          "name": "uri",
          "type": "string"
        },
        {
          "internalType": "uint256",
          "name": "price",
          "type": "uint256"
        },
        {
          "internalType": "string",
          "name": "imageUrl",
          "type": "string"
        }
      ],
      "name": "createAdSpace",
      "outputs": [],
      "stateMutability": "nonpayable",
      "type": "function"
    },
    {
      "inputs": [
        {
          "internalType": "uint256",
          "name": "tokenId",
          "type": "uint256"
        }
      ],
      "name": "buyAdSpace",
      "outputs": [],
      "stateMutability": "nonpayable",
      "type": "function"
    },
    {
      "inputs": [
        {
          "internalType": "uint256",
          "name": "tokenId",
          "type": "uint256"
        },
        {
          "internalType": "string",
          "name": "newUri",
          "type": "string"
        },
        {
          "internalType": "uint256",
          "name": "newPrice",
          "type": "uint256"
        },
        {
          "internalType": "string",
          "name": "newImageUrl",
          "type": "string"
        }
      ],
      "name": "updateAdSpace",
      "outputs": [],
      "stateMutability": "nonpayable",
      "type": "function"
    },
    {
      "inputs": [
        {
          "internalType": "uint256",
          "name": "tokenId",
          "type": "uint256"
        }
      ],
      "name": "deleteAdSpace",
      "outputs": [],
      "stateMutability": "nonpayable",
      "type": "function"
    },
    {
      "inputs": [],
      "name": "totalAdSpaces",
      "outputs": [
        {
          "internalType": "uint256",
          "name": "",
          "type": "uint256"
        }
      ],
      "stateMutability": "view",
      "type": "function",
      "constant": true
    },
    {
      "inputs": [
        {
          "internalType": "address",
          "name": "owner",
          "type": "address"
        }
      ],
      "name": "adSpacesOf",
      "outputs": [
        {
          "internalType": "uint256[]",
          "name": "",
          "type": "uint256[]"
        }
      ],
      "stateMutability": "view",
      "type": "function",
      "constant": true
    },
    {
      "inputs": [
        {
          "internalType": "address",
          "name": "user",
          "type": "address"
        }
      ],
      "name": "getAdSpacesCreatedByUser",
      "outputs": [
        {
          "internalType": "uint256",
          "name": "",
          "type": "uint256"
        }
      ],
      "stateMutability": "view",
      "type": "function",
      "constant": true
    },
    {
      "inputs": [
        {
          "internalType": "uint256",
          "name": "tokenId",
          "type": "uint256"
        }
      ],
      "name": "isAdSpacePurchased",
      "outputs": [
        {
          "internalType": "bool",
          "name": "",
          "type": "bool"
        }
      ],
      "stateMutability": "view",
      "type": "function",
      "constant": true
    }
  ],
  "bytecode": "0x60806040523480156200001157600080fd5b50604051620026cc380380620026cc833981016040819052620000349162000171565b604080518082018252600c81526b20b229b830b1b2aa37b5b2b760a11b6020808301918252835180850190945260038452621054d560ea1b9084015281519192916200008391600091620000cb565b50805162000099906001906020840190620000cb565b5050600b80546001600160a01b039093166001600160a01b031993841617905550600c805490911633179055620001e0565b828054620000d990620001a3565b90600052602060002090601f016020900481019282620000fd576000855562000148565b82601f106200011857805160ff191683800117855562000148565b8280016001018555821562000148579182015b82811115620001485782518255916020019190600101906200012b565b50620001569291506200015a565b5090565b5b808211156200015657600081556001016200015b565b6000602082840312156200018457600080fd5b81516001600160a01b03811681146200019c57600080fd5b9392505050565b600181811c90821680620001b857607f821691505b60208210811415620001da57634e487b7160e01b600052602260045260246000fd5b50919050565b6124dc80620001f06000396000f3fe608060405234801561001057600080fd5b50600436106101a95760003560e01c80634f6ccce7116100f9578063a22cb46511610097578063dd501d2811610071578063dd501d28146103cd578063e5891474146103e0578063e7c67fe7146103f3578063e985e9c51461041657600080fd5b8063a22cb46514610394578063b88d4fde146103a7578063c87b56dd146103ba57600080fd5b806370a08231116100d357806370a08231146103435780637a9b4e9d1461035657806394a8da281461036957806395d89b411461038c57600080fd5b80634f6ccce7146103155780636352211e14610328578063651168df1461033b57600080fd5b806323b872dd1161016657806331d024f41161014057806331d024f4146102ac57806334d32bb6146102bf57806342842e0e146102e25780634ca846c4146102f557600080fd5b806323b872dd1461025d578063283e3a9b146102705780632f745c591461029957600080fd5b806301ffc9a7146101ae57806306fdde03146101d6578063081812fc146101eb578063095ea7b31461021657806318160ddd1461022b578063200515cd1461023d575b600080fd5b6101c16101bc366004611d7d565b610452565b60405190151581526020015b60405180910390f35b6101de61047d565b6040516101cd9190611df2565b6101fe6101f9366004611e05565b61050f565b6040516001600160a01b0390911681526020016101cd565b610229610224366004611e3a565b610536565b005b6008545b6040519081526020016101cd565b61022f61024b366004611e64565b600e6020526000908152604090205481565b61022961026b366004611e7f565b610651565b61022f61027e366004611e64565b6001600160a01b03166000908152600e602052604090205490565b61022f6102a7366004611e3a565b610682565b6102296102ba366004611f67565b610718565b6101c16102cd366004611e05565b600f6020526000908152604090205460ff1681565b6102296102f0366004611e7f565b6107de565b610308610303366004611e64565b6107f9565b6040516101cd9190611fd4565b61022f610323366004611e05565b61089b565b6101fe610336366004611e05565b61092e565b61022f61098e565b61022f610351366004611e64565b61099e565b610229610364366004611e05565b610a24565b6101c1610377366004611e05565b6000908152600f602052604090205460ff1690565b6101de610ae0565b6102296103a2366004612026565b610aef565b6102296103b536600461205d565b610afa565b6101de6103c8366004611e05565b610b32565b6102296103db366004611e05565b610ba6565b6102296103ee3660046120d9565b610f33565b610406610401366004611e05565b610fe3565b6040516101cd9493929190612144565b6101c1610424366004612180565b6001600160a01b03918216600090815260056020908152604080832093909416825291909152205460ff1690565b60006001600160e01b0319821663780e9d6360e01b148061047757506104778261111c565b92915050565b60606000805461048c906121b3565b80601f01602080910402602001604051908101604052809291908181526020018280546104b8906121b3565b80156105055780601f106104da57610100808354040283529160200191610505565b820191906000526020600020905b8154815290600101906020018083116104e857829003601f168201915b5050505050905090565b600061051a8261116c565b506000908152600460205260409020546001600160a01b031690565b60006105418261092e565b9050806001600160a01b0316836001600160a01b031614156105b45760405162461bcd60e51b815260206004820152602160248201527f4552433732313a20617070726f76616c20746f2063757272656e74206f776e656044820152603960f91b60648201526084015b60405180910390fd5b336001600160a01b03821614806105d057506105d08133610424565b6106425760405162461bcd60e51b815260206004820152603d60248201527f4552433732313a20617070726f76652063616c6c6572206973206e6f7420746f60448201527f6b656e206f776e6572206f7220617070726f76656420666f7220616c6c00000060648201526084016105ab565b61064c83836111bf565b505050565b61065b338261122d565b6106775760405162461bcd60e51b81526004016105ab906121ee565b61064c8383836112ac565b600061068d8361099e565b82106106ef5760405162461bcd60e51b815260206004820152602b60248201527f455243373231456e756d657261626c653a206f776e657220696e646578206f7560448201526a74206f6620626f756e647360a81b60648201526084016105ab565b506001600160a01b03919091166000908152600660209081526040808320938352929052205490565b6000610723600a5490565b600c5490915061073c906001600160a01b03168261141d565b604080516080810182528281526020808201878152828401879052606083018690526000858152600d83529390932082518155925180519293926107869260018501920190611c98565b5060408201516002820155606082015180516107ac916003840191602090910190611c98565b5050600a8054600101905550336000908152600e602052604081208054916107d383612251565b919050555050505050565b61064c83838360405180602001604052806000815250610afa565b606060006108068361099e565b905060008167ffffffffffffffff81111561082357610823611ebb565b60405190808252806020026020018201604052801561084c578160200160208202803683370190505b50905060005b82811015610893576108648582610682565b8282815181106108765761087661226c565b60209081029190910101528061088b81612251565b915050610852565b509392505050565b60006108a660085490565b82106109095760405162461bcd60e51b815260206004820152602c60248201527f455243373231456e756d657261626c653a20676c6f62616c20696e646578206f60448201526b7574206f6620626f756e647360a01b60648201526084016105ab565b6008828154811061091c5761091c61226c565b90600052602060002001549050919050565b6000818152600260205260408120546001600160a01b0316806104775760405162461bcd60e51b8152602060048201526018602482015277115490cdcc8c4e881a5b9d985b1a59081d1bdad95b88125160421b60448201526064016105ab565b6000610999600a5490565b905090565b60006001600160a01b038216610a085760405162461bcd60e51b815260206004820152602960248201527f4552433732313a2061646472657373207a65726f206973206e6f7420612076616044820152683634b21037bbb732b960b91b60648201526084016105ab565b506001600160a01b031660009081526003602052604090205490565b8033610a2f8261092e565b6001600160a01b031614610a555760405162461bcd60e51b81526004016105ab90612282565b610a5e82611598565b610a7a5760405162461bcd60e51b81526004016105ab906122c7565b336000908152600e60205260408120805491610a958361230c565b90915550506000828152600d6020526040812081815590610ab96001830182611d1c565b6002820160009055600382016000610ad19190611d1c565b5050610adc826115b5565b5050565b60606001805461048c906121b3565b610adc338383611658565b610b04338361122d565b610b205760405162461bcd60e51b81526004016105ab906121ee565b610b2c84848484611727565b50505050565b6060610b3d8261116c565b6000610b5460408051602081019091526000815290565b90506000815111610b745760405180602001604052806000815250610b9f565b80610b7e8461175a565b604051602001610b8f929190612323565b6040516020818303038152906040525b9392505050565b610baf81611598565b610bcb5760405162461bcd60e51b81526004016105ab906122c7565b6000600d600083815260200190815260200160002060405180608001604052908160008201548152602001600182018054610c05906121b3565b80601f0160208091040260200160405190810160405280929190818152602001828054610c31906121b3565b8015610c7e5780601f10610c5357610100808354040283529160200191610c7e565b820191906000526020600020905b815481529060010190602001808311610c6157829003601f168201915b5050505050815260200160028201548152602001600382018054610ca1906121b3565b80601f0160208091040260200160405190810160405280929190818152602001828054610ccd906121b3565b8015610d1a5780601f10610cef57610100808354040283529160200191610d1a565b820191906000526020600020905b815481529060010190602001808311610cfd57829003601f168201915b50505091909252505050604081810151600b5491516370a0823160e01b8152336004820152929350916001600160a01b03909116906370a082319060240160206040518083038186803b158015610d7057600080fd5b505afa158015610d84573d6000803e3d6000fd5b505050506040513d601f19601f82011682018060405250810190610da89190612352565b1015610e0f5760405162461bcd60e51b815260206004820152603060248201527f41645370616365546f6b656e3a20496e73756666696369656e74207061796d6560448201526f6e7420746f6b656e2062616c616e636560801b60648201526084016105ab565b600b546001600160a01b03166323b872dd33610e2a8561092e565b60408086015190516001600160e01b031960e086901b1681526001600160a01b0393841660048201529290911660248301526044820152606401602060405180830381600087803b158015610e7e57600080fd5b505af1158015610e92573d6000803e3d6000fd5b505050506040513d601f19601f82011682018060405250810190610eb6919061236b565b50610eca610ec38361092e565b33846112ac565b6000828152600f602052604090819020805460ff19166001179055517ff161e797a8d0e434e3470a60a9343ec359299a536ed6e51414733f40f8f1d5cf90610f2790849033909182526001600160a01b0316602082015260400190565b60405180910390a15050565b8333610f3e8261092e565b6001600160a01b031614610f645760405162461bcd60e51b81526004016105ab90612282565b610f6d85611598565b610f895760405162461bcd60e51b81526004016105ab906122c7565b6000858152600d602090815260409091208551610fae92600190920191870190611c98565b506000858152600d60209081526040909120600281018590558351610fdb92600390920191850190611c98565b505050505050565b600d6020526000908152604090208054600182018054919291611005906121b3565b80601f0160208091040260200160405190810160405280929190818152602001828054611031906121b3565b801561107e5780601f106110535761010080835404028352916020019161107e565b820191906000526020600020905b81548152906001019060200180831161106157829003601f168201915b505050505090806002015490806003018054611099906121b3565b80601f01602080910402602001604051908101604052809291908181526020018280546110c5906121b3565b80156111125780601f106110e757610100808354040283529160200191611112565b820191906000526020600020905b8154815290600101906020018083116110f557829003601f168201915b5050505050905084565b60006001600160e01b031982166380ac58cd60e01b148061114d57506001600160e01b03198216635b5e139f60e01b145b8061047757506301ffc9a760e01b6001600160e01b0319831614610477565b61117581611598565b6111bc5760405162461bcd60e51b8152602060048201526018602482015277115490cdcc8c4e881a5b9d985b1a59081d1bdad95b88125160421b60448201526064016105ab565b50565b600081815260046020526040902080546001600160a01b0319166001600160a01b03841690811790915581906111f48261092e565b6001600160a01b03167f8c5be1e5ebec7d5bd14f71427d1e84f3dd0314c0f7b2291e5b200ac8c7c3b92560405160405180910390a45050565b6000806112398361092e565b9050806001600160a01b0316846001600160a01b0316148061128057506001600160a01b0380821660009081526005602090815260408083209388168352929052205460ff165b806112a45750836001600160a01b03166112998461050f565b6001600160a01b0316145b949350505050565b826001600160a01b03166112bf8261092e565b6001600160a01b0316146112e55760405162461bcd60e51b81526004016105ab90612388565b6001600160a01b0382166113475760405162461bcd60e51b8152602060048201526024808201527f4552433732313a207472616e7366657220746f20746865207a65726f206164646044820152637265737360e01b60648201526084016105ab565b61135483838360016117ef565b826001600160a01b03166113678261092e565b6001600160a01b03161461138d5760405162461bcd60e51b81526004016105ab90612388565b600081815260046020908152604080832080546001600160a01b03199081169091556001600160a01b0387811680865260038552838620805460001901905590871680865283862080546001019055868652600290945282852080549092168417909155905184937fddf252ad1be2c89b69c2b068fc378daa952ba7f163c4a11628f55a4df523b3ef91a4505050565b6001600160a01b0382166114735760405162461bcd60e51b815260206004820181905260248201527f4552433732313a206d696e7420746f20746865207a65726f206164647265737360448201526064016105ab565b61147c81611598565b156114c95760405162461bcd60e51b815260206004820152601c60248201527f4552433732313a20746f6b656e20616c7265616479206d696e7465640000000060448201526064016105ab565b6114d76000838360016117ef565b6114e081611598565b1561152d5760405162461bcd60e51b815260206004820152601c60248201527f4552433732313a20746f6b656e20616c7265616479206d696e7465640000000060448201526064016105ab565b6001600160a01b038216600081815260036020908152604080832080546001019055848352600290915280822080546001600160a01b0319168417905551839291907fddf252ad1be2c89b69c2b068fc378daa952ba7f163c4a11628f55a4df523b3ef908290a45050565b6000908152600260205260409020546001600160a01b0316151590565b60006115c08261092e565b90506115d08160008460016117ef565b6115d98261092e565b600083815260046020908152604080832080546001600160a01b03199081169091556001600160a01b0385168085526003845282852080546000190190558785526002909352818420805490911690555192935084927fddf252ad1be2c89b69c2b068fc378daa952ba7f163c4a11628f55a4df523b3ef908390a45050565b816001600160a01b0316836001600160a01b031614156116ba5760405162461bcd60e51b815260206004820152601960248201527f4552433732313a20617070726f766520746f2063616c6c65720000000000000060448201526064016105ab565b6001600160a01b03838116600081815260056020908152604080832094871680845294825291829020805460ff191686151590811790915591519182527f17307eab39ab6107e8899845ad3d59bd9653f200f220920489ca2b5937696c31910160405180910390a3505050565b6117328484846112ac565b61173e84848484611923565b610b2c5760405162461bcd60e51b81526004016105ab906123cd565b6060600061176783611a30565b600101905060008167ffffffffffffffff81111561178757611787611ebb565b6040519080825280601f01601f1916602001820160405280156117b1576020820181803683370190505b5090508181016020015b600019016f181899199a1a9b1b9c1cb0b131b232b360811b600a86061a8153600a85049450846117ea57610893565b6117bb565b600181111561185e5760405162461bcd60e51b815260206004820152603560248201527f455243373231456e756d657261626c653a20636f6e7365637574697665207472604482015274185b9cd9995c9cc81b9bdd081cdd5c1c1bdc9d1959605a1b60648201526084016105ab565b816001600160a01b0385166118ba576118b581600880546000838152600960205260408120829055600182018355919091527ff3f7a9fe364faab93b216da50a3214154f22a0a2b415b23a84c8169e8b636ee30155565b6118dd565b836001600160a01b0316856001600160a01b0316146118dd576118dd8582611b08565b6001600160a01b0384166118f9576118f481611ba5565b61191c565b846001600160a01b0316846001600160a01b03161461191c5761191c8482611c54565b5050505050565b60006001600160a01b0384163b15611a2557604051630a85bd0160e11b81526001600160a01b0385169063150b7a029061196790339089908890889060040161241f565b602060405180830381600087803b15801561198157600080fd5b505af19250505080156119b1575060408051601f3d908101601f191682019092526119ae9181019061245c565b60015b611a0b573d8080156119df576040519150601f19603f3d011682016040523d82523d6000602084013e6119e4565b606091505b508051611a035760405162461bcd60e51b81526004016105ab906123cd565b805181602001fd5b6001600160e01b031916630a85bd0160e11b1490506112a4565b506001949350505050565b60008072184f03e93ff9f4daa797ed6e38ed64bf6a1f0160401b8310611a6f5772184f03e93ff9f4daa797ed6e38ed64bf6a1f0160401b830492506040015b6d04ee2d6d415b85acef81000000008310611a9b576d04ee2d6d415b85acef8100000000830492506020015b662386f26fc100008310611ab957662386f26fc10000830492506010015b6305f5e1008310611ad1576305f5e100830492506008015b6127108310611ae557612710830492506004015b60648310611af7576064830492506002015b600a83106104775760010192915050565b60006001611b158461099e565b611b1f9190612479565b600083815260076020526040902054909150808214611b72576001600160a01b03841660009081526006602090815260408083208584528252808320548484528184208190558352600790915290208190555b5060009182526007602090815260408084208490556001600160a01b039094168352600681528383209183525290812055565b600854600090611bb790600190612479565b60008381526009602052604081205460088054939450909284908110611bdf57611bdf61226c565b906000526020600020015490508060088381548110611c0057611c0061226c565b6000918252602080832090910192909255828152600990915260408082208490558582528120556008805480611c3857611c38612490565b6001900381819060005260206000200160009055905550505050565b6000611c5f8361099e565b6001600160a01b039093166000908152600660209081526040808320868452825280832085905593825260079052919091209190915550565b828054611ca4906121b3565b90600052602060002090601f016020900481019282611cc65760008555611d0c565b82601f10611cdf57805160ff1916838001178555611d0c565b82800160010185558215611d0c579182015b82811115611d0c578251825591602001919060010190611cf1565b50611d18929150611d52565b5090565b508054611d28906121b3565b6000825580601f10611d38575050565b601f0160209004906000526020600020908101906111bc91905b5b80821115611d185760008155600101611d53565b6001600160e01b0319811681146111bc57600080fd5b600060208284031215611d8f57600080fd5b8135610b9f81611d67565b60005b83811015611db5578181015183820152602001611d9d565b83811115610b2c5750506000910152565b60008151808452611dde816020860160208601611d9a565b601f01601f19169290920160200192915050565b602081526000610b9f6020830184611dc6565b600060208284031215611e1757600080fd5b5035919050565b80356001600160a01b0381168114611e3557600080fd5b919050565b60008060408385031215611e4d57600080fd5b611e5683611e1e565b946020939093013593505050565b600060208284031215611e7657600080fd5b610b9f82611e1e565b600080600060608486031215611e9457600080fd5b611e9d84611e1e565b9250611eab60208501611e1e565b9150604084013590509250925092565b634e487b7160e01b600052604160045260246000fd5b600067ffffffffffffffff80841115611eec57611eec611ebb565b604051601f8501601f19908116603f01168101908282118183101715611f1457611f14611ebb565b81604052809350858152868686011115611f2d57600080fd5b858560208301376000602087830101525050509392505050565b600082601f830112611f5857600080fd5b610b9f83833560208501611ed1565b600080600060608486031215611f7c57600080fd5b833567ffffffffffffffff80821115611f9457600080fd5b611fa087838801611f47565b9450602086013593506040860135915080821115611fbd57600080fd5b50611fca86828701611f47565b9150509250925092565b6020808252825182820181905260009190848201906040850190845b8181101561200c57835183529284019291840191600101611ff0565b50909695505050505050565b80151581146111bc57600080fd5b6000806040838503121561203957600080fd5b61204283611e1e565b9150602083013561205281612018565b809150509250929050565b6000806000806080858703121561207357600080fd5b61207c85611e1e565b935061208a60208601611e1e565b925060408501359150606085013567ffffffffffffffff8111156120ad57600080fd5b8501601f810187136120be57600080fd5b6120cd87823560208401611ed1565b91505092959194509250565b600080600080608085870312156120ef57600080fd5b84359350602085013567ffffffffffffffff8082111561210e57600080fd5b61211a88838901611f47565b945060408701359350606087013591508082111561213757600080fd5b506120cd87828801611f47565b84815260806020820152600061215d6080830186611dc6565b84604084015282810360608401526121758185611dc6565b979650505050505050565b6000806040838503121561219357600080fd5b61219c83611e1e565b91506121aa60208401611e1e565b90509250929050565b600181811c908216806121c757607f821691505b602082108114156121e857634e487b7160e01b600052602260045260246000fd5b50919050565b6020808252602d908201527f4552433732313a2063616c6c6572206973206e6f7420746f6b656e206f776e6560408201526c1c881bdc88185c1c1c9bdd9959609a1b606082015260800190565b634e487b7160e01b600052601160045260246000fd5b60006000198214156122655761226561223b565b5060010190565b634e487b7160e01b600052603260045260246000fd5b60208082526025908201527f41645370616365546f6b656e3a2043616c6c6572206973206e6f74207468652060408201526437bbb732b960d91b606082015260800190565b60208082526025908201527f41645370616365546f6b656e3a20416420737061636520646f6573206e6f7420604082015264195e1a5cdd60da1b606082015260800190565b60008161231b5761231b61223b565b506000190190565b60008351612335818460208801611d9a565b835190830190612349818360208801611d9a565b01949350505050565b60006020828403121561236457600080fd5b5051919050565b60006020828403121561237d57600080fd5b8151610b9f81612018565b60208082526025908201527f4552433732313a207472616e736665722066726f6d20696e636f72726563742060408201526437bbb732b960d91b606082015260800190565b60208082526032908201527f4552433732313a207472616e7366657220746f206e6f6e20455243373231526560408201527131b2b4bb32b91034b6b83632b6b2b73a32b960711b606082015260800190565b6001600160a01b038581168252841660208201526040810183905260806060820181905260009061245290830184611dc6565b9695505050505050565b60006020828403121561246e57600080fd5b8151610b9f81611d67565b60008282101561248b5761248b61223b565b500390565b634e487b7160e01b600052603160045260246000fdfea2646970667358221220a763dd46d7931e237b6f36ea447bcd68ef5790bdc43f65440dad21cec93664c964736f6c63430008090033",
  "immutableReferences": {},
  "source": "\r\n// pragma solidity ^0.8.0;\r\n\r\n// import \"@openzeppelin/contracts/token/ERC721/ERC721.sol\";\r\n// import \"@openzeppelin/contracts/token/ERC20/IERC20.sol\";\r\n// import \"@openzeppelin/contracts/utils/Counters.sol\";\r\n// import \"@openzeppelin/contracts/token/ERC721/extensions/ERC721Enumerable.sol\";\r\n// import \"hardhat/console.sol\";\r\n\r\n// contract AdSpaceToken is ERC721Enumerable {\r\n//     using Counters for Counters.Counter;\r\n//     Counters.Counter private _tokenIdCounter;\r\n\r\n//     IERC20 private _paymentToken;\r\n\r\n//     struct AdSpace {\r\n//         uint256 tokenId;\r\n//         string uri;\r\n//         uint256 price;\r\n//         string imageUrl;\r\n//     }\r\n\r\n//     mapping(uint256 => AdSpace) public adSpaces;\r\n//     mapping(address => uint256) public adSpacesCreatedByUser;\r\n\r\n//     event AdSpacePurchased(uint256 tokenId, address buyer);\r\n\r\n//     constructor(IERC20 paymentToken) ERC721(\"AdSpaceToken\", \"AST\") {\r\n//         _paymentToken = paymentToken;\r\n//     }\r\n\r\n//     modifier onlyOwner(uint256 tokenId) {\r\n//         require(ownerOf(tokenId) == msg.sender, \"AdSpaceToken: Caller is not the owner\");\r\n//         _;\r\n//     }\r\n\r\n//     function createAdSpace(string memory uri, uint256 price, string memory imageUrl) public {\r\n//         uint256 tokenId = _tokenIdCounter.current();\r\n//         _mint(msg.sender, tokenId);\r\n//         adSpaces[tokenId] = AdSpace(tokenId, uri, price, imageUrl);\r\n//         _tokenIdCounter.increment();\r\n\r\n//         // Increment the count of ad spaces created by the user\r\n//         adSpacesCreatedByUser[msg.sender]++;\r\n//     }\r\n\r\n//     function buyAdSpace(uint256 tokenId) public {\r\n//     console.log(\"Checking if token exists\");\r\n//     require(_exists(tokenId), \"AdSpaceToken: Ad space does not exist\");\r\n//     AdSpace memory adSpace = adSpaces[tokenId];\r\n//     console.log(\"Checking if buyer has sufficient balance\");\r\n//     require(_paymentToken.balanceOf(msg.sender) >= adSpace.price, \"AdSpaceToken: Insufficient payment token balance\");\r\n\r\n//     console.log(\"Transferring payment tokens\");\r\n//     _paymentToken.transferFrom(msg.sender, ownerOf(tokenId), adSpace.price);\r\n//     console.log(\"Transferring ad space ownership\");\r\n//     _transfer(ownerOf(tokenId), msg.sender, tokenId);\r\n//     emit AdSpacePurchased(tokenId, msg.sender);\r\n// }\r\n\r\n\r\n//     function updateAdSpace(uint256 tokenId, string memory newUri, uint256 newPrice, string memory newImageUrl) public onlyOwner(tokenId) {\r\n//         require(_exists(tokenId), \"AdSpaceToken: Ad space does not exist\");\r\n\r\n//         adSpaces[tokenId].uri = newUri;\r\n//         adSpaces[tokenId].price = newPrice;\r\n//         adSpaces[tokenId].imageUrl = newImageUrl;\r\n//     }\r\n\r\n//     function deleteAdSpace(uint256 tokenId) public onlyOwner(tokenId) {\r\n//     require(_exists(tokenId), \"AdSpaceToken: Ad space does not exist\");\r\n\r\n//     // Decrement the count of ad spaces created by the user\r\n//     adSpacesCreatedByUser[msg.sender]--;\r\n//     console.log(\"Ad spaces created by user after decrement:\", adSpacesCreatedByUser[msg.sender]);\r\n\r\n//     delete adSpaces[tokenId];\r\n//     _burn(tokenId);\r\n// }\r\n\r\n\r\n//     function totalAdSpaces() public view returns (uint256) {\r\n//         return _tokenIdCounter.current();\r\n//     }\r\n\r\n//     function adSpacesOf(address owner) public view returns (uint256[] memory) {\r\n//         uint256 tokenCount = balanceOf(owner);\r\n\r\n//         uint256[] memory ownedTokenIds = new uint256[](tokenCount);\r\n//         for (uint256 i = 0; i < tokenCount; i++) {\r\n//             ownedTokenIds[i] = tokenOfOwnerByIndex(owner, i);\r\n//         }\r\n\r\n//         return ownedTokenIds;\r\n//     }\r\n\r\n//     function getAdSpacesCreatedByUser(address user) public view returns (uint256) {\r\n//         return adSpacesCreatedByUser[user];\r\n//     }\r\n// }\r\n\r\npragma solidity ^0.8.0;\r\n\r\nimport \"@openzeppelin/contracts/token/ERC721/ERC721.sol\";\r\nimport \"@openzeppelin/contracts/token/ERC20/IERC20.sol\";\r\nimport \"@openzeppelin/contracts/utils/Counters.sol\";\r\nimport \"@openzeppelin/contracts/token/ERC721/extensions/ERC721Enumerable.sol\";\r\nimport \"hardhat/console.sol\";\r\n\r\ncontract AdSpaceToken is ERC721Enumerable {\r\n    using Counters for Counters.Counter;\r\n    Counters.Counter private _tokenIdCounter;\r\n\r\n    IERC20 private _paymentToken;\r\n    address private _owner; // Add the contract owner variable\r\n\r\n    struct AdSpace {\r\n        uint256 tokenId;\r\n        string uri;\r\n        uint256 price;\r\n        string imageUrl;\r\n    }\r\n\r\n    mapping(uint256 => AdSpace) public adSpaces;\r\n    mapping(address => uint256) public adSpacesCreatedByUser;\r\n    mapping(uint256 => bool) public adSpacePurchasedStatus;\r\n\r\n    event AdSpacePurchased(uint256 tokenId, address buyer);\r\n\r\n    constructor(IERC20 paymentToken) ERC721(\"AdSpaceToken\", \"AST\") {\r\n        _paymentToken = paymentToken;\r\n        _owner = msg.sender; // Set the contract owner as the deployer\r\n    }\r\n\r\n    modifier onlyOwner(uint256 tokenId) {\r\n        require(ownerOf(tokenId) == msg.sender, \"AdSpaceToken: Caller is not the owner\");\r\n        _;\r\n    }\r\n\r\n    function createAdSpace(string memory uri, uint256 price, string memory imageUrl) public {\r\n        uint256 tokenId = _tokenIdCounter.current();\r\n        _mint(_owner, tokenId); // Mint the NFT to the contract owner instead of the msg.sender\r\n        adSpaces[tokenId] = AdSpace(tokenId, uri, price, imageUrl);\r\n        _tokenIdCounter.increment();\r\n\r\n        // Increment the count of ad spaces created by the user\r\n        adSpacesCreatedByUser[msg.sender]++;\r\n    }\r\n\r\n    function buyAdSpace(uint256 tokenId) public {\r\n        require(_exists(tokenId), \"AdSpaceToken: Ad space does not exist\");\r\n        AdSpace memory adSpace = adSpaces[tokenId];\r\n        require(_paymentToken.balanceOf(msg.sender) >= adSpace.price, \"AdSpaceToken: Insufficient payment token balance\");\r\n\r\n        _paymentToken.transferFrom(msg.sender, ownerOf(tokenId), adSpace.price);\r\n        _transfer(ownerOf(tokenId), msg.sender, tokenId);\r\n        adSpacePurchasedStatus[tokenId] = true; // Set purchased status to true\r\n\r\n        emit AdSpacePurchased(tokenId, msg.sender);\r\n    }\r\n\r\n    function updateAdSpace(uint256 tokenId, string memory newUri, uint256 newPrice, string memory newImageUrl) public onlyOwner(tokenId) {\r\n        require(_exists(tokenId), \"AdSpaceToken: Ad space does not exist\");\r\n\r\n        adSpaces[tokenId].uri = newUri;\r\n        adSpaces[tokenId].price = newPrice;\r\n        adSpaces[tokenId].imageUrl = newImageUrl;\r\n    }\r\n\r\n    function deleteAdSpace(uint256 tokenId) public onlyOwner(tokenId) {\r\n        require(_exists(tokenId), \"AdSpaceToken: Ad space does not exist\");\r\n\r\n        // Decrement the count of ad spaces created by the user\r\n        adSpacesCreatedByUser[msg.sender]--;\r\n        delete adSpaces[tokenId];\r\n        _burn(tokenId);\r\n    }\r\n\r\n    function totalAdSpaces() public view returns (uint256) {\r\n        return _tokenIdCounter.current();\r\n    }\r\n\r\n    function adSpacesOf(address owner) public view returns (uint256[] memory) {\r\n        uint256 tokenCount = balanceOf(owner);\r\n\r\n        uint256[] memory ownedTokenIds = new uint256[](tokenCount);\r\n        for (uint256 i = 0; i <tokenCount; i++) {\r\nownedTokenIds[i] = tokenOfOwnerByIndex(owner, i);\r\n}\r\n    return ownedTokenIds;\r\n}\r\n\r\nfunction getAdSpacesCreatedByUser(address user) public view returns (uint256) {\r\n    return adSpacesCreatedByUser[user];\r\n}\r\n\r\n// Add this function to check if an ad space is purchased\r\nfunction isAdSpacePurchased(uint256 tokenId) public view returns (bool) {\r\n    return adSpacePurchasedStatus[tokenId];\r\n}\r\n}\r\n\r\n",
  "sourcePath": "C:\\Users\\Faizuddin\\Desktop\\blockchainProject\\contracts\\AdSpaceToken.sol",
  "compiler": {
    "name": "solc",
    "version": "0.8.9+commit.e5eed63a.Emscripten.clang"
  },
  "schemaVersion": "3.4.13",
  "updatedAt": "2023-04-30T08:02:36.963Z",
  "networkType": "ethereum",
  "devdoc": {
    "kind": "dev",
    "methods": {
      "approve(address,uint256)": {
        "details": "See {IERC721-approve}."
      },
      "balanceOf(address)": {
        "details": "See {IERC721-balanceOf}."
      },
      "getApproved(uint256)": {
        "details": "See {IERC721-getApproved}."
      },
      "isApprovedForAll(address,address)": {
        "details": "See {IERC721-isApprovedForAll}."
      },
      "name()": {
        "details": "See {IERC721Metadata-name}."
      },
      "ownerOf(uint256)": {
        "details": "See {IERC721-ownerOf}."
      },
      "safeTransferFrom(address,address,uint256)": {
        "details": "See {IERC721-safeTransferFrom}."
      },
      "safeTransferFrom(address,address,uint256,bytes)": {
        "details": "See {IERC721-safeTransferFrom}."
      },
      "setApprovalForAll(address,bool)": {
        "details": "See {IERC721-setApprovalForAll}."
      },
      "supportsInterface(bytes4)": {
        "details": "See {IERC165-supportsInterface}."
      },
      "symbol()": {
        "details": "See {IERC721Metadata-symbol}."
      },
      "tokenByIndex(uint256)": {
        "details": "See {IERC721Enumerable-tokenByIndex}."
      },
      "tokenOfOwnerByIndex(address,uint256)": {
        "details": "See {IERC721Enumerable-tokenOfOwnerByIndex}."
      },
      "tokenURI(uint256)": {
        "details": "See {IERC721Metadata-tokenURI}."
      },
      "totalSupply()": {
        "details": "See {IERC721Enumerable-totalSupply}."
      },
      "transferFrom(address,address,uint256)": {
        "details": "See {IERC721-transferFrom}."
      }
    },
    "version": 1
  },
  "userdoc": {
    "kind": "user",
    "methods": {},
    "version": 1
  }
}